{
  "contractName": "Ballot",
  "abi": [
    {
      "inputs": [
        {
          "internalType": "bytes32[]",
          "name": "proposalNames",
          "type": "bytes32[]"
        }
      ],
      "stateMutability": "nonpayable",
      "type": "constructor"
    },
    {
      "inputs": [],
      "name": "chairPerson",
      "outputs": [
        {
          "internalType": "address",
          "name": "",
          "type": "address"
        }
      ],
      "stateMutability": "view",
      "type": "function"
    },
    {
      "inputs": [
        {
          "internalType": "uint256",
          "name": "",
          "type": "uint256"
        }
      ],
      "name": "proposals",
      "outputs": [
        {
          "internalType": "bytes32",
          "name": "name",
          "type": "bytes32"
        },
        {
          "internalType": "uint256",
          "name": "voteCount",
          "type": "uint256"
        }
      ],
      "stateMutability": "view",
      "type": "function"
    },
    {
      "inputs": [
        {
          "internalType": "address",
          "name": "",
          "type": "address"
        }
      ],
      "name": "voters",
      "outputs": [
        {
          "internalType": "uint256",
          "name": "weight",
          "type": "uint256"
        },
        {
          "internalType": "bool",
          "name": "voted",
          "type": "bool"
        },
        {
          "internalType": "address",
          "name": "delegate",
          "type": "address"
        },
        {
          "internalType": "uint256",
          "name": "vote",
          "type": "uint256"
        }
      ],
      "stateMutability": "view",
      "type": "function"
    },
    {
      "inputs": [
        {
          "internalType": "address",
          "name": "voter",
          "type": "address"
        }
      ],
      "name": "giveRightToVote",
      "outputs": [],
      "stateMutability": "nonpayable",
      "type": "function"
    },
    {
      "inputs": [
        {
          "internalType": "address",
          "name": "to",
          "type": "address"
        }
      ],
      "name": "delegateVote",
      "outputs": [],
      "stateMutability": "nonpayable",
      "type": "function"
    },
    {
      "inputs": [
        {
          "internalType": "uint256",
          "name": "proposal",
          "type": "uint256"
        }
      ],
      "name": "vote",
      "outputs": [],
      "stateMutability": "nonpayable",
      "type": "function"
    },
    {
      "inputs": [],
      "name": "winningProposal",
      "outputs": [
        {
          "internalType": "uint256",
          "name": "_winningProposal",
          "type": "uint256"
        }
      ],
      "stateMutability": "view",
      "type": "function"
    },
    {
      "inputs": [],
      "name": "winnerName",
      "outputs": [
        {
          "internalType": "bytes32",
          "name": "_winnerName",
          "type": "bytes32"
        }
      ],
      "stateMutability": "view",
      "type": "function"
    }
  ],
  "bytecode": "0x60806040523480156200001157600080fd5b506040516200153338038062001533833981810160405281019062000037919062000342565b336000806101000a81548173ffffffffffffffffffffffffffffffffffffffff021916908373ffffffffffffffffffffffffffffffffffffffff16021790555060018060008060009054906101000a900473ffffffffffffffffffffffffffffffffffffffff1673ffffffffffffffffffffffffffffffffffffffff1673ffffffffffffffffffffffffffffffffffffffff1681526020019081526020016000206000018190555060005b81518110156200017657600260405180604001604052808484815181106200010f576200010e62000393565b5b60200260200101518152602001600081525090806001815401808255809150506001900390600052602060002090600202016000909190919091506000820151816000015560208201518160010155505080806200016d90620003fb565b915050620000e2565b505062000449565b6000604051905090565b600080fd5b600080fd5b600080fd5b6000601f19601f8301169050919050565b7f4e487b7100000000000000000000000000000000000000000000000000000000600052604160045260246000fd5b620001e28262000197565b810181811067ffffffffffffffff82111715620002045762000203620001a8565b5b80604052505050565b6000620002196200017e565b9050620002278282620001d7565b919050565b600067ffffffffffffffff8211156200024a5762000249620001a8565b5b602082029050602081019050919050565b600080fd5b6000819050919050565b620002758162000260565b81146200028157600080fd5b50565b60008151905062000295816200026a565b92915050565b6000620002b2620002ac846200022c565b6200020d565b90508083825260208201905060208402830185811115620002d857620002d76200025b565b5b835b81811015620003055780620002f0888262000284565b845260208401935050602081019050620002da565b5050509392505050565b600082601f83011262000327576200032662000192565b5b8151620003398482602086016200029b565b91505092915050565b6000602082840312156200035b576200035a62000188565b5b600082015167ffffffffffffffff8111156200037c576200037b6200018d565b5b6200038a848285016200030f565b91505092915050565b7f4e487b7100000000000000000000000000000000000000000000000000000000600052603260045260246000fd5b7f4e487b7100000000000000000000000000000000000000000000000000000000600052601160045260246000fd5b6000819050919050565b60006200040882620003f1565b91507fffffffffffffffffffffffffffffffffffffffffffffffffffffffffffffffff8214156200043e576200043d620003c2565b5b600182019050919050565b6110da80620004596000396000f3fe608060405234801561001057600080fd5b50600436106100885760003560e01c8063a3ec138d1161005b578063a3ec138d14610114578063b31e1d4d14610147578063d4d4b5ac14610163578063e2ba53f01461018157610088565b80630121b93f1461008d578063013cf08b146100a9578063609ff1bd146100da5780639e7b8d61146100f8575b600080fd5b6100a760048036038101906100a29190610a21565b61019f565b005b6100c360048036038101906100be9190610a21565b6102e6565b6040516100d1929190610a76565b60405180910390f35b6100e261031a565b6040516100ef9190610a9f565b60405180910390f35b610112600480360381019061010d9190610b18565b6103a2565b005b61012e60048036038101906101299190610b18565b61058f565b60405161013e9493929190610b6f565b60405180910390f35b610161600480360381019061015c9190610b18565b6105ec565b005b61016b61098e565b6040516101789190610bb4565b60405180910390f35b6101896109b2565b6040516101969190610bcf565b60405180910390f35b6000600160003373ffffffffffffffffffffffffffffffffffffffff1673ffffffffffffffffffffffffffffffffffffffff168152602001908152602001600020905060008160000154141561022a576040517f08c379a000000000000000000000000000000000000000000000000000000000815260040161022190610c47565b60405180910390fd5b8060010160009054906101000a900460ff161561027c576040517f08c379a000000000000000000000000000000000000000000000000000000000815260040161027390610cb3565b60405180910390fd5b60018160010160006101000a81548160ff0219169083151502179055508181600201819055508060000154600283815481106102bb576102ba610cd3565b5b906000526020600020906002020160010160008282546102db9190610d31565b925050819055505050565b600281815481106102f657600080fd5b90600052602060002090600202016000915090508060000154908060010154905082565b6000806000905060005b60028054905081101561039d57816002828154811061034657610345610cd3565b5b906000526020600020906002020160010154111561038a576002818154811061037257610371610cd3565b5b90600052602060002090600202016001015491508092505b808061039590610d87565b915050610324565b505090565b60008054906101000a900473ffffffffffffffffffffffffffffffffffffffff1673ffffffffffffffffffffffffffffffffffffffff163373ffffffffffffffffffffffffffffffffffffffff1614610430576040517f08c379a000000000000000000000000000000000000000000000000000000000815260040161042790610e42565b60405180910390fd5b600160008273ffffffffffffffffffffffffffffffffffffffff1673ffffffffffffffffffffffffffffffffffffffff16815260200190815260200160002060010160009054906101000a900460ff16156104c0576040517f08c379a00000000000000000000000000000000000000000000000000000000081526004016104b790610eae565b60405180910390fd5b6000600160008373ffffffffffffffffffffffffffffffffffffffff1673ffffffffffffffffffffffffffffffffffffffff1681526020019081526020016000206000015414610545576040517f08c379a000000000000000000000000000000000000000000000000000000000815260040161053c90610f1a565b60405180910390fd5b60018060008373ffffffffffffffffffffffffffffffffffffffff1673ffffffffffffffffffffffffffffffffffffffff1681526020019081526020016000206000018190555050565b60016020528060005260406000206000915090508060000154908060010160009054906101000a900460ff16908060010160019054906101000a900473ffffffffffffffffffffffffffffffffffffffff16908060020154905084565b60008190506000600160003373ffffffffffffffffffffffffffffffffffffffff1673ffffffffffffffffffffffffffffffffffffffff16815260200190815260200160002090508060010160009054906101000a900460ff1615610686576040517f08c379a000000000000000000000000000000000000000000000000000000000815260040161067d90610f86565b60405180910390fd5b3373ffffffffffffffffffffffffffffffffffffffff168273ffffffffffffffffffffffffffffffffffffffff1614156106f5576040517f08c379a00000000000000000000000000000000000000000000000000000000081526004016106ec90610ff2565b60405180910390fd5b5b600073ffffffffffffffffffffffffffffffffffffffff16600160008473ffffffffffffffffffffffffffffffffffffffff1673ffffffffffffffffffffffffffffffffffffffff16815260200190815260200160002060010160019054906101000a900473ffffffffffffffffffffffffffffffffffffffff1673ffffffffffffffffffffffffffffffffffffffff161461086557600160008373ffffffffffffffffffffffffffffffffffffffff1673ffffffffffffffffffffffffffffffffffffffff16815260200190815260200160002060010160019054906101000a900473ffffffffffffffffffffffffffffffffffffffff1691503373ffffffffffffffffffffffffffffffffffffffff168273ffffffffffffffffffffffffffffffffffffffff161415610860576040517f08c379a000000000000000000000000000000000000000000000000000000000815260040161085790611084565b60405180910390fd5b6106f6565b60018160010160006101000a81548160ff021916908315150217905550818160010160016101000a81548173ffffffffffffffffffffffffffffffffffffffff021916908373ffffffffffffffffffffffffffffffffffffffff1602179055506000600160008473ffffffffffffffffffffffffffffffffffffffff1673ffffffffffffffffffffffffffffffffffffffff16815260200190815260200160002090508060010160009054906101000a900460ff1615610968578160000154600282600201548154811061093c5761093b610cd3565b5b9060005260206000209060020201600101600082825461095c9190610d31565b92505081905550610988565b81600001548160000160008282546109809190610d31565b925050819055505b50505050565b60008054906101000a900473ffffffffffffffffffffffffffffffffffffffff1681565b600060026109be61031a565b815481106109cf576109ce610cd3565b5b906000526020600020906002020160000154905090565b600080fd5b6000819050919050565b6109fe816109eb565b8114610a0957600080fd5b50565b600081359050610a1b816109f5565b92915050565b600060208284031215610a3757610a366109e6565b5b6000610a4584828501610a0c565b91505092915050565b6000819050919050565b610a6181610a4e565b82525050565b610a70816109eb565b82525050565b6000604082019050610a8b6000830185610a58565b610a986020830184610a67565b9392505050565b6000602082019050610ab46000830184610a67565b92915050565b600073ffffffffffffffffffffffffffffffffffffffff82169050919050565b6000610ae582610aba565b9050919050565b610af581610ada565b8114610b0057600080fd5b50565b600081359050610b1281610aec565b92915050565b600060208284031215610b2e57610b2d6109e6565b5b6000610b3c84828501610b03565b91505092915050565b60008115159050919050565b610b5a81610b45565b82525050565b610b6981610ada565b82525050565b6000608082019050610b846000830187610a67565b610b916020830186610b51565b610b9e6040830185610b60565b610bab6060830184610a67565b95945050505050565b6000602082019050610bc96000830184610b60565b92915050565b6000602082019050610be46000830184610a58565b92915050565b600082825260208201905092915050565b7f486173206e6f20726967687420746f20766f7465000000000000000000000000600082015250565b6000610c31601483610bea565b9150610c3c82610bfb565b602082019050919050565b60006020820190508181036000830152610c6081610c24565b9050919050565b7f416c726561647920766f7465642e000000000000000000000000000000000000600082015250565b6000610c9d600e83610bea565b9150610ca882610c67565b602082019050919050565b60006020820190508181036000830152610ccc81610c90565b9050919050565b7f4e487b7100000000000000000000000000000000000000000000000000000000600052603260045260246000fd5b7f4e487b7100000000000000000000000000000000000000000000000000000000600052601160045260246000fd5b6000610d3c826109eb565b9150610d47836109eb565b9250827fffffffffffffffffffffffffffffffffffffffffffffffffffffffffffffffff03821115610d7c57610d7b610d02565b5b828201905092915050565b6000610d92826109eb565b91507fffffffffffffffffffffffffffffffffffffffffffffffffffffffffffffffff821415610dc557610dc4610d02565b5b600182019050919050565b7f4f6e6c7920746865206368616972506572736f6e2063616e206769766520726960008201527f67687420746f20766f7465000000000000000000000000000000000000000000602082015250565b6000610e2c602b83610bea565b9150610e3782610dd0565b604082019050919050565b60006020820190508181036000830152610e5b81610e1f565b9050919050565b7f54686520766f74657220616c726561647920766f746564000000000000000000600082015250565b6000610e98601783610bea565b9150610ea382610e62565b602082019050919050565b60006020820190508181036000830152610ec781610e8b565b9050919050565b7f566f746572206d7573742068617665206e6f2077656967687400000000000000600082015250565b6000610f04601983610bea565b9150610f0f82610ece565b602082019050919050565b60006020820190508181036000830152610f3381610ef7565b9050919050565b7f596f7520616c726561647920766f746564000000000000000000000000000000600082015250565b6000610f70601183610bea565b9150610f7b82610f3a565b602082019050919050565b60006020820190508181036000830152610f9f81610f63565b9050919050565b7f53656c662d64656c65676174696f6e20697320646973616c6c6f776564000000600082015250565b6000610fdc601d83610bea565b9150610fe782610fa6565b602082019050919050565b6000602082019050818103600083015261100b81610fcf565b9050919050565b7f466f756e64206c6f6f7020696e2064656c65676174696f6e2e204e6f7420616c60008201527f6c6f7765642e0000000000000000000000000000000000000000000000000000602082015250565b600061106e602683610bea565b915061107982611012565b604082019050919050565b6000602082019050818103600083015261109d81611061565b905091905056fea264697066735822122051ba62c43360648c8f01d4e5480dcd0e00bd972c0e7cc6f1cc73c55e6e682af364736f6c634300080a0033",
  "immutableReferences": {},
  "source": "// SPDX-License-Identifier: GPL-3.0\r\npragma solidity >=0.4.16 <0.9.0;\r\n\r\n/// @title Voting with delegation.\r\ncontract Ballot {\r\n    // represents a single voter\r\n    struct Voter {\r\n        uint weight; // accumulated by delegeation\r\n        bool voted; // if true, person already voted\r\n        address delegate;  // person delegated to\r\n        uint vote; // index of the voted proposal\r\n    }\r\n\r\n    // represents a single proposal\r\n    struct Proposal {\r\n        bytes32 name; // short name (up to 32 bytes)\r\n        uint voteCount; // number of accumulated votes\r\n    }\r\n\r\n    address public chairPerson;\r\n\r\n    // stores a Voter struct for each possible address\r\n    mapping(address => Voter) public voters;\r\n\r\n    // array of Proposal structs\r\n    Proposal[] public proposals;\r\n\r\n    // create a new ballot to choose one of the 'proposalNames'\r\n    constructor(bytes32[] memory proposalNames) public {\r\n        chairPerson = msg.sender;\r\n        voters[chairPerson].weight = 1;\r\n        // For each of the provided proposal names,\r\n        // create a new proposal object and add it\r\n        // to the end of the array.\r\n        for (uint i = 0; i < proposalNames.length; i++) {\r\n            proposals.push(Proposal({\r\n                name: proposalNames[i],\r\n                voteCount: 0\r\n            }));\r\n        }\r\n    }\r\n\r\n    // right to vote\r\n    function giveRightToVote(address voter) external {\r\n        require(msg.sender == chairPerson, \"Only the chairPerson can give right to vote\");\r\n        require(!voters[voter].voted, \"The voter already voted\");\r\n        require(voters[voter].weight == 0, \"Voter must have no weight\");\r\n        voters[voter].weight = 1;\r\n    }\r\n\r\n    // Delegate your vote to the voter\r\n    function delegateVote(address to) external {\r\n        address receiver = to;\r\n        Voter storage sender = voters[msg.sender];\r\n        require(!sender.voted, \"You already voted\");\r\n\r\n        require(receiver != msg.sender, \"Self-delegation is disallowed\");\r\n        // Forward the delegation as long as\r\n        // `to` also delegated.\r\n        // In general, such loops are very dangerous,\r\n        // because if they run too long, they might\r\n        // need more gas than is available in a block.\r\n        // In this case, the delegation will not be executed,\r\n        // but in other situations, such loops might\r\n        // cause a contract to get \"stuck\" completely.\r\n        while (voters[receiver].delegate != address(0)) {\r\n            receiver = voters[receiver].delegate;\r\n\r\n            // We found a loop in the delegation, not allowed.\r\n            require(receiver != msg.sender, \"Found loop in delegation. Not allowed.\");\r\n        }\r\n\r\n        sender.voted = true;\r\n        sender.delegate = receiver;\r\n        Voter storage _delegate = voters[receiver];\r\n        if (_delegate.voted) {\r\n            // If the delegate already voted,\r\n            // directly add to the number of votes\r\n            proposals[_delegate.vote].voteCount += sender.weight;\r\n        } else {\r\n            _delegate.weight += sender.weight;\r\n        }\r\n    }\r\n\r\n    // Give a vote\r\n    function vote(uint proposal) external {\r\n        Voter storage sender = voters[msg.sender];\r\n        require(sender.weight != 0, \"Has no right to vote\");\r\n        require(!sender.voted, \"Already voted.\");\r\n        sender.voted = true;\r\n        sender.vote = proposal;\r\n        // If `proposal` is out of the range of the array,\r\n        // this will throw automatically and revert all\r\n        // changes.\r\n        proposals[proposal].voteCount += sender.weight;\r\n    }\r\n\r\n    /// Computes the winning proposal taking all\r\n    /// previous votes into account.\r\n    function winningProposal() public view returns (uint _winningProposal) {\r\n        uint winningVoteCount = 0;\r\n        for (uint j = 0; j < proposals.length; j++) {\r\n            if (proposals[j].voteCount > winningVoteCount) {\r\n                winningVoteCount = proposals[j].voteCount;\r\n                _winningProposal = j;\r\n            }\r\n        }\r\n    }\r\n\r\n    // get the index\r\n    // of the winner contained in the proposals array and then\r\n    // returns the name of the winner\r\n    function winnerName() external view returns (bytes32 _winnerName) {\r\n        _winnerName = proposals[winningProposal()].name;\r\n    }\r\n}",
  "sourcePath": "C:\\Users\\Tyquan\\Desktop\\Eth_tuts\\solidity\\Voting\\contracts\\Ballot.sol",
  "compiler": {
    "name": "solc",
    "version": "0.8.10+commit.fc410830.Emscripten.clang"
  },
  "schemaVersion": "3.4.4",
  "updatedAt": "2021-12-30T18:24:42.098Z",
  "devdoc": {
    "kind": "dev",
    "methods": {},
    "title": "Voting with delegation.",
    "version": 1
  },
  "userdoc": {
    "kind": "user",
    "methods": {
      "winningProposal()": {
        "notice": "Computes the winning proposal taking all previous votes into account."
      }
    },
    "version": 1
  }
}