{
  "contractName": "Condos",
  "abi": [
    {
      "inputs": [],
      "stateMutability": "nonpayable",
      "type": "constructor"
    },
    {
      "anonymous": false,
      "inputs": [
        {
          "indexed": true,
          "internalType": "address",
          "name": "owner",
          "type": "address"
        },
        {
          "indexed": true,
          "internalType": "address",
          "name": "approved",
          "type": "address"
        },
        {
          "indexed": true,
          "internalType": "uint256",
          "name": "tokenId",
          "type": "uint256"
        }
      ],
      "name": "Approval",
      "type": "event"
    },
    {
      "anonymous": false,
      "inputs": [
        {
          "indexed": true,
          "internalType": "address",
          "name": "owner",
          "type": "address"
        },
        {
          "indexed": true,
          "internalType": "address",
          "name": "operator",
          "type": "address"
        },
        {
          "indexed": false,
          "internalType": "bool",
          "name": "approved",
          "type": "bool"
        }
      ],
      "name": "ApprovalForAll",
      "type": "event"
    },
    {
      "anonymous": false,
      "inputs": [
        {
          "indexed": true,
          "internalType": "address",
          "name": "from",
          "type": "address"
        },
        {
          "indexed": true,
          "internalType": "address",
          "name": "to",
          "type": "address"
        },
        {
          "indexed": true,
          "internalType": "uint256",
          "name": "tokenId",
          "type": "uint256"
        }
      ],
      "name": "Transfer",
      "type": "event"
    },
    {
      "inputs": [
        {
          "internalType": "address",
          "name": "",
          "type": "address"
        }
      ],
      "name": "MDTrack",
      "outputs": [
        {
          "internalType": "uint256",
          "name": "",
          "type": "uint256"
        }
      ],
      "stateMutability": "view",
      "type": "function"
    },
    {
      "inputs": [],
      "name": "_tokenId",
      "outputs": [
        {
          "internalType": "uint256",
          "name": "",
          "type": "uint256"
        }
      ],
      "stateMutability": "view",
      "type": "function"
    },
    {
      "inputs": [
        {
          "internalType": "address",
          "name": "to",
          "type": "address"
        },
        {
          "internalType": "uint256",
          "name": "tokenId",
          "type": "uint256"
        }
      ],
      "name": "approve",
      "outputs": [],
      "stateMutability": "nonpayable",
      "type": "function"
    },
    {
      "inputs": [
        {
          "internalType": "address",
          "name": "owner",
          "type": "address"
        }
      ],
      "name": "balanceOf",
      "outputs": [
        {
          "internalType": "uint256",
          "name": "",
          "type": "uint256"
        }
      ],
      "stateMutability": "view",
      "type": "function"
    },
    {
      "inputs": [
        {
          "internalType": "uint256",
          "name": "tokenId",
          "type": "uint256"
        }
      ],
      "name": "getApproved",
      "outputs": [
        {
          "internalType": "address",
          "name": "",
          "type": "address"
        }
      ],
      "stateMutability": "view",
      "type": "function"
    },
    {
      "inputs": [
        {
          "internalType": "address",
          "name": "owner",
          "type": "address"
        },
        {
          "internalType": "address",
          "name": "operator",
          "type": "address"
        }
      ],
      "name": "isApprovedForAll",
      "outputs": [
        {
          "internalType": "bool",
          "name": "",
          "type": "bool"
        }
      ],
      "stateMutability": "view",
      "type": "function"
    },
    {
      "inputs": [],
      "name": "name",
      "outputs": [
        {
          "internalType": "string",
          "name": "",
          "type": "string"
        }
      ],
      "stateMutability": "view",
      "type": "function"
    },
    {
      "inputs": [
        {
          "internalType": "uint256",
          "name": "tokenId",
          "type": "uint256"
        }
      ],
      "name": "ownerOf",
      "outputs": [
        {
          "internalType": "address",
          "name": "",
          "type": "address"
        }
      ],
      "stateMutability": "view",
      "type": "function"
    },
    {
      "inputs": [
        {
          "internalType": "address",
          "name": "from",
          "type": "address"
        },
        {
          "internalType": "address",
          "name": "to",
          "type": "address"
        },
        {
          "internalType": "uint256",
          "name": "tokenId",
          "type": "uint256"
        }
      ],
      "name": "safeTransferFrom",
      "outputs": [],
      "stateMutability": "nonpayable",
      "type": "function"
    },
    {
      "inputs": [
        {
          "internalType": "address",
          "name": "from",
          "type": "address"
        },
        {
          "internalType": "address",
          "name": "to",
          "type": "address"
        },
        {
          "internalType": "uint256",
          "name": "tokenId",
          "type": "uint256"
        },
        {
          "internalType": "bytes",
          "name": "_data",
          "type": "bytes"
        }
      ],
      "name": "safeTransferFrom",
      "outputs": [],
      "stateMutability": "nonpayable",
      "type": "function"
    },
    {
      "inputs": [
        {
          "internalType": "address",
          "name": "operator",
          "type": "address"
        },
        {
          "internalType": "bool",
          "name": "approved",
          "type": "bool"
        }
      ],
      "name": "setApprovalForAll",
      "outputs": [],
      "stateMutability": "nonpayable",
      "type": "function"
    },
    {
      "inputs": [
        {
          "internalType": "bytes4",
          "name": "interfaceId",
          "type": "bytes4"
        }
      ],
      "name": "supportsInterface",
      "outputs": [
        {
          "internalType": "bool",
          "name": "",
          "type": "bool"
        }
      ],
      "stateMutability": "view",
      "type": "function"
    },
    {
      "inputs": [],
      "name": "symbol",
      "outputs": [
        {
          "internalType": "string",
          "name": "",
          "type": "string"
        }
      ],
      "stateMutability": "view",
      "type": "function"
    },
    {
      "inputs": [
        {
          "internalType": "uint256",
          "name": "tokenId",
          "type": "uint256"
        }
      ],
      "name": "tokenURI",
      "outputs": [
        {
          "internalType": "string",
          "name": "",
          "type": "string"
        }
      ],
      "stateMutability": "view",
      "type": "function"
    },
    {
      "inputs": [
        {
          "internalType": "address",
          "name": "from",
          "type": "address"
        },
        {
          "internalType": "address",
          "name": "to",
          "type": "address"
        },
        {
          "internalType": "uint256",
          "name": "tokenId",
          "type": "uint256"
        }
      ],
      "name": "transferFrom",
      "outputs": [],
      "stateMutability": "nonpayable",
      "type": "function"
    },
    {
      "inputs": [
        {
          "internalType": "address",
          "name": "receiver",
          "type": "address"
        }
      ],
      "name": "createNFT",
      "outputs": [
        {
          "internalType": "uint256",
          "name": "",
          "type": "uint256"
        }
      ],
      "stateMutability": "nonpayable",
      "type": "function"
    },
    {
      "inputs": [
        {
          "internalType": "address",
          "name": "sender",
          "type": "address"
        },
        {
          "internalType": "address",
          "name": "receiver",
          "type": "address"
        },
        {
          "internalType": "uint256",
          "name": "tokenId",
          "type": "uint256"
        }
      ],
      "name": "transferNFT",
      "outputs": [
        {
          "internalType": "uint256",
          "name": "",
          "type": "uint256"
        }
      ],
      "stateMutability": "payable",
      "type": "function"
    }
  ],
  "bytecode": "0x60806040523480156200001157600080fd5b506040518060400160405280600a81526020017f436f6e646f734974656d000000000000000000000000000000000000000000008152506040518060400160405280600381526020017f434e440000000000000000000000000000000000000000000000000000000000815250816000908051906020019062000096929190620000c0565b508060019080519060200190620000af929190620000c0565b5050506000600681905550620001d5565b828054620000ce906200019f565b90600052602060002090601f016020900481019282620000f257600085556200013e565b82601f106200010d57805160ff19168380011785556200013e565b828001600101855582156200013e579182015b828111156200013d57825182559160200191906001019062000120565b5b5090506200014d919062000151565b5090565b5b808211156200016c57600081600090555060010162000152565b5090565b7f4e487b7100000000000000000000000000000000000000000000000000000000600052602260045260246000fd5b60006002820490506001821680620001b857607f821691505b60208210811415620001cf57620001ce62000170565b5b50919050565b61290280620001e56000396000f3fe6080604052600436106100fe5760003560e01c8063461623ff1161009557806395d89b411161006457806395d89b4114610372578063a22cb4651461039d578063b88d4fde146103c6578063c87b56dd146103ef578063e985e9c51461042c576100fe565b8063461623ff1461028b5780636352211e146102c857806369e9cae11461030557806370a0823114610335576100fe565b806317e5883c116100d157806317e5883c146101d157806323b872dd1461020e578063248225141461023757806342842e0e14610262576100fe565b806301ffc9a71461010357806306fdde0314610140578063081812fc1461016b578063095ea7b3146101a8575b600080fd5b34801561010f57600080fd5b5061012a60048036038101906101259190611885565b610469565b60405161013791906118cd565b60405180910390f35b34801561014c57600080fd5b5061015561054b565b6040516101629190611981565b60405180910390f35b34801561017757600080fd5b50610192600480360381019061018d91906119d9565b6105dd565b60405161019f9190611a47565b60405180910390f35b3480156101b457600080fd5b506101cf60048036038101906101ca9190611a8e565b610662565b005b3480156101dd57600080fd5b506101f860048036038101906101f39190611ace565b61077a565b6040516102059190611b0a565b60405180910390f35b34801561021a57600080fd5b5061023560048036038101906102309190611b25565b6107aa565b005b34801561024357600080fd5b5061024c61080a565b6040516102599190611b0a565b60405180910390f35b34801561026e57600080fd5b5061028960048036038101906102849190611b25565b610810565b005b34801561029757600080fd5b506102b260048036038101906102ad9190611ace565b610830565b6040516102bf9190611b0a565b60405180910390f35b3480156102d457600080fd5b506102ef60048036038101906102ea91906119d9565b610848565b6040516102fc9190611a47565b60405180910390f35b61031f600480360381019061031a9190611b25565b6108fa565b60405161032c9190611b0a565b60405180910390f35b34801561034157600080fd5b5061035c60048036038101906103579190611ace565b61099c565b6040516103699190611b0a565b60405180910390f35b34801561037e57600080fd5b50610387610a54565b6040516103949190611981565b60405180910390f35b3480156103a957600080fd5b506103c460048036038101906103bf9190611ba4565b610ae6565b005b3480156103d257600080fd5b506103ed60048036038101906103e89190611d19565b610afc565b005b3480156103fb57600080fd5b50610416600480360381019061041191906119d9565b610b5e565b6040516104239190611981565b60405180910390f35b34801561043857600080fd5b50610453600480360381019061044e9190611d9c565b610c05565b60405161046091906118cd565b60405180910390f35b60007f80ac58cd000000000000000000000000000000000000000000000000000000007bffffffffffffffffffffffffffffffffffffffffffffffffffffffff1916827bffffffffffffffffffffffffffffffffffffffffffffffffffffffff1916148061053457507f5b5e139f000000000000000000000000000000000000000000000000000000007bffffffffffffffffffffffffffffffffffffffffffffffffffffffff1916827bffffffffffffffffffffffffffffffffffffffffffffffffffffffff1916145b80610544575061054382610c99565b5b9050919050565b60606000805461055a90611e0b565b80601f016020809104026020016040519081016040528092919081815260200182805461058690611e0b565b80156105d35780601f106105a8576101008083540402835291602001916105d3565b820191906000526020600020905b8154815290600101906020018083116105b657829003601f168201915b5050505050905090565b60006105e882610d03565b610627576040517f08c379a000000000000000000000000000000000000000000000000000000000815260040161061e90611eaf565b60405180910390fd5b6004600083815260200190815260200160002060009054906101000a900473ffffffffffffffffffffffffffffffffffffffff169050919050565b600061066d82610848565b90508073ffffffffffffffffffffffffffffffffffffffff168373ffffffffffffffffffffffffffffffffffffffff1614156106de576040517f08c379a00000000000000000000000000000000000000000000000000000000081526004016106d590611f41565b60405180910390fd5b8073ffffffffffffffffffffffffffffffffffffffff166106fd610d6f565b73ffffffffffffffffffffffffffffffffffffffff16148061072c575061072b81610726610d6f565b610c05565b5b61076b576040517f08c379a000000000000000000000000000000000000000000000000000000000815260040161076290611fd3565b60405180910390fd5b6107758383610d77565b505050565b60006006600081548092919061078f90612022565b91905055506107a082600654610e30565b6006549050919050565b6107bb6107b5610d6f565b82610ffe565b6107fa576040517f08c379a00000000000000000000000000000000000000000000000000000000081526004016107f1906120dd565b60405180910390fd5b6108058383836110dc565b505050565b60065481565b61082b83838360405180602001604052806000815250610afc565b505050565b60076020528060005260406000206000915090505481565b6000806002600084815260200190815260200160002060009054906101000a900473ffffffffffffffffffffffffffffffffffffffff169050600073ffffffffffffffffffffffffffffffffffffffff168173ffffffffffffffffffffffffffffffffffffffff1614156108f1576040517f08c379a00000000000000000000000000000000000000000000000000000000081526004016108e89061216f565b60405180910390fd5b80915050919050565b60006109078484846107aa565b600760008573ffffffffffffffffffffffffffffffffffffffff1673ffffffffffffffffffffffffffffffffffffffff16815260200190815260200160002060009055600654600760008573ffffffffffffffffffffffffffffffffffffffff1673ffffffffffffffffffffffffffffffffffffffff1681526020019081526020016000208190555060065490509392505050565b60008073ffffffffffffffffffffffffffffffffffffffff168273ffffffffffffffffffffffffffffffffffffffff161415610a0d576040517f08c379a0000000000000000000000000000000000000000000000000000000008152600401610a0490612201565b60405180910390fd5b600360008373ffffffffffffffffffffffffffffffffffffffff1673ffffffffffffffffffffffffffffffffffffffff168152602001908152602001600020549050919050565b606060018054610a6390611e0b565b80601f0160208091040260200160405190810160405280929190818152602001828054610a8f90611e0b565b8015610adc5780601f10610ab157610100808354040283529160200191610adc565b820191906000526020600020905b815481529060010190602001808311610abf57829003601f168201915b5050505050905090565b610af8610af1610d6f565b8383611338565b5050565b610b0d610b07610d6f565b83610ffe565b610b4c576040517f08c379a0000000000000000000000000000000000000000000000000000000008152600401610b43906120dd565b60405180910390fd5b610b58848484846114a5565b50505050565b6060610b6982610d03565b610ba8576040517f08c379a0000000000000000000000000000000000000000000000000000000008152600401610b9f90612293565b60405180910390fd5b6000610bb2611501565b90506000815111610bd25760405180602001604052806000815250610bfd565b80610bdc84611518565b604051602001610bed9291906122ef565b6040516020818303038152906040525b915050919050565b6000600560008473ffffffffffffffffffffffffffffffffffffffff1673ffffffffffffffffffffffffffffffffffffffff16815260200190815260200160002060008373ffffffffffffffffffffffffffffffffffffffff1673ffffffffffffffffffffffffffffffffffffffff16815260200190815260200160002060009054906101000a900460ff16905092915050565b60007f01ffc9a7000000000000000000000000000000000000000000000000000000007bffffffffffffffffffffffffffffffffffffffffffffffffffffffff1916827bffffffffffffffffffffffffffffffffffffffffffffffffffffffff1916149050919050565b60008073ffffffffffffffffffffffffffffffffffffffff166002600084815260200190815260200160002060009054906101000a900473ffffffffffffffffffffffffffffffffffffffff1673ffffffffffffffffffffffffffffffffffffffff1614159050919050565b600033905090565b816004600083815260200190815260200160002060006101000a81548173ffffffffffffffffffffffffffffffffffffffff021916908373ffffffffffffffffffffffffffffffffffffffff160217905550808273ffffffffffffffffffffffffffffffffffffffff16610dea83610848565b73ffffffffffffffffffffffffffffffffffffffff167f8c5be1e5ebec7d5bd14f71427d1e84f3dd0314c0f7b2291e5b200ac8c7c3b92560405160405180910390a45050565b600073ffffffffffffffffffffffffffffffffffffffff168273ffffffffffffffffffffffffffffffffffffffff161415610ea0576040517f08c379a0000000000000000000000000000000000000000000000000000000008152600401610e979061235f565b60405180910390fd5b610ea981610d03565b15610ee9576040517f08c379a0000000000000000000000000000000000000000000000000000000008152600401610ee0906123cb565b60405180910390fd5b610ef560008383611679565b6001600360008473ffffffffffffffffffffffffffffffffffffffff1673ffffffffffffffffffffffffffffffffffffffff1681526020019081526020016000206000828254610f4591906123eb565b92505081905550816002600083815260200190815260200160002060006101000a81548173ffffffffffffffffffffffffffffffffffffffff021916908373ffffffffffffffffffffffffffffffffffffffff160217905550808273ffffffffffffffffffffffffffffffffffffffff16600073ffffffffffffffffffffffffffffffffffffffff167fddf252ad1be2c89b69c2b068fc378daa952ba7f163c4a11628f55a4df523b3ef60405160405180910390a45050565b600061100982610d03565b611048576040517f08c379a000000000000000000000000000000000000000000000000000000000815260040161103f906124b3565b60405180910390fd5b600061105383610848565b90508073ffffffffffffffffffffffffffffffffffffffff168473ffffffffffffffffffffffffffffffffffffffff1614806110c257508373ffffffffffffffffffffffffffffffffffffffff166110aa846105dd565b73ffffffffffffffffffffffffffffffffffffffff16145b806110d357506110d28185610c05565b5b91505092915050565b8273ffffffffffffffffffffffffffffffffffffffff166110fc82610848565b73ffffffffffffffffffffffffffffffffffffffff1614611152576040517f08c379a000000000000000000000000000000000000000000000000000000000815260040161114990612545565b60405180910390fd5b600073ffffffffffffffffffffffffffffffffffffffff168273ffffffffffffffffffffffffffffffffffffffff1614156111c2576040517f08c379a00000000000000000000000000000000000000000000000000000000081526004016111b9906125d7565b60405180910390fd5b6111cd838383611679565b6111d8600082610d77565b6001600360008573ffffffffffffffffffffffffffffffffffffffff1673ffffffffffffffffffffffffffffffffffffffff168152602001908152602001600020600082825461122891906125f7565b925050819055506001600360008473ffffffffffffffffffffffffffffffffffffffff1673ffffffffffffffffffffffffffffffffffffffff168152602001908152602001600020600082825461127f91906123eb565b92505081905550816002600083815260200190815260200160002060006101000a81548173ffffffffffffffffffffffffffffffffffffffff021916908373ffffffffffffffffffffffffffffffffffffffff160217905550808273ffffffffffffffffffffffffffffffffffffffff168473ffffffffffffffffffffffffffffffffffffffff167fddf252ad1be2c89b69c2b068fc378daa952ba7f163c4a11628f55a4df523b3ef60405160405180910390a4505050565b8173ffffffffffffffffffffffffffffffffffffffff168373ffffffffffffffffffffffffffffffffffffffff1614156113a7576040517f08c379a000000000000000000000000000000000000000000000000000000000815260040161139e90612677565b60405180910390fd5b80600560008573ffffffffffffffffffffffffffffffffffffffff1673ffffffffffffffffffffffffffffffffffffffff16815260200190815260200160002060008473ffffffffffffffffffffffffffffffffffffffff1673ffffffffffffffffffffffffffffffffffffffff16815260200190815260200160002060006101000a81548160ff0219169083151502179055508173ffffffffffffffffffffffffffffffffffffffff168373ffffffffffffffffffffffffffffffffffffffff167f17307eab39ab6107e8899845ad3d59bd9653f200f220920489ca2b5937696c318360405161149891906118cd565b60405180910390a3505050565b6114b08484846110dc565b6114bc8484848461167e565b6114fb576040517f08c379a00000000000000000000000000000000000000000000000000000000081526004016114f290612709565b60405180910390fd5b50505050565b606060405180602001604052806000815250905090565b60606000821415611560576040518060400160405280600181526020017f30000000000000000000000000000000000000000000000000000000000000008152509050611674565b600082905060005b6000821461159257808061157b90612022565b915050600a8261158b9190612758565b9150611568565b60008167ffffffffffffffff8111156115ae576115ad611bee565b5b6040519080825280601f01601f1916602001820160405280156115e05781602001600182028036833780820191505090505b5090505b6000851461166d576001826115f991906125f7565b9150600a856116089190612789565b603061161491906123eb565b60f81b81838151811061162a576116296127ba565b5b60200101907effffffffffffffffffffffffffffffffffffffffffffffffffffffffffffff1916908160001a905350600a856116669190612758565b94506115e4565b8093505050505b919050565b505050565b600061169f8473ffffffffffffffffffffffffffffffffffffffff16611806565b156117f9578373ffffffffffffffffffffffffffffffffffffffff1663150b7a026116c8610d6f565b8786866040518563ffffffff1660e01b81526004016116ea949392919061283e565b6020604051808303816000875af192505050801561172657506040513d601f19601f82011682018060405250810190611723919061289f565b60015b6117a9573d8060008114611756576040519150601f19603f3d011682016040523d82523d6000602084013e61175b565b606091505b506000815114156117a1576040517f08c379a000000000000000000000000000000000000000000000000000000000815260040161179890612709565b60405180910390fd5b805181602001fd5b63150b7a0260e01b7bffffffffffffffffffffffffffffffffffffffffffffffffffffffff1916817bffffffffffffffffffffffffffffffffffffffffffffffffffffffff1916149150506117fe565b600190505b949350505050565b600080823b905060008111915050919050565b6000604051905090565b600080fd5b600080fd5b60007fffffffff0000000000000000000000000000000000000000000000000000000082169050919050565b6118628161182d565b811461186d57600080fd5b50565b60008135905061187f81611859565b92915050565b60006020828403121561189b5761189a611823565b5b60006118a984828501611870565b91505092915050565b60008115159050919050565b6118c7816118b2565b82525050565b60006020820190506118e260008301846118be565b92915050565b600081519050919050565b600082825260208201905092915050565b60005b83811015611922578082015181840152602081019050611907565b83811115611931576000848401525b50505050565b6000601f19601f8301169050919050565b6000611953826118e8565b61195d81856118f3565b935061196d818560208601611904565b61197681611937565b840191505092915050565b6000602082019050818103600083015261199b8184611948565b905092915050565b6000819050919050565b6119b6816119a3565b81146119c157600080fd5b50565b6000813590506119d3816119ad565b92915050565b6000602082840312156119ef576119ee611823565b5b60006119fd848285016119c4565b91505092915050565b600073ffffffffffffffffffffffffffffffffffffffff82169050919050565b6000611a3182611a06565b9050919050565b611a4181611a26565b82525050565b6000602082019050611a5c6000830184611a38565b92915050565b611a6b81611a26565b8114611a7657600080fd5b50565b600081359050611a8881611a62565b92915050565b60008060408385031215611aa557611aa4611823565b5b6000611ab385828601611a79565b9250506020611ac4858286016119c4565b9150509250929050565b600060208284031215611ae457611ae3611823565b5b6000611af284828501611a79565b91505092915050565b611b04816119a3565b82525050565b6000602082019050611b1f6000830184611afb565b92915050565b600080600060608486031215611b3e57611b3d611823565b5b6000611b4c86828701611a79565b9350506020611b5d86828701611a79565b9250506040611b6e868287016119c4565b9150509250925092565b611b81816118b2565b8114611b8c57600080fd5b50565b600081359050611b9e81611b78565b92915050565b60008060408385031215611bbb57611bba611823565b5b6000611bc985828601611a79565b9250506020611bda85828601611b8f565b9150509250929050565b600080fd5b600080fd5b7f4e487b7100000000000000000000000000000000000000000000000000000000600052604160045260246000fd5b611c2682611937565b810181811067ffffffffffffffff82111715611c4557611c44611bee565b5b80604052505050565b6000611c58611819565b9050611c648282611c1d565b919050565b600067ffffffffffffffff821115611c8457611c83611bee565b5b611c8d82611937565b9050602081019050919050565b82818337600083830152505050565b6000611cbc611cb784611c69565b611c4e565b905082815260208101848484011115611cd857611cd7611be9565b5b611ce3848285611c9a565b509392505050565b600082601f830112611d0057611cff611be4565b5b8135611d10848260208601611ca9565b91505092915050565b60008060008060808587031215611d3357611d32611823565b5b6000611d4187828801611a79565b9450506020611d5287828801611a79565b9350506040611d63878288016119c4565b925050606085013567ffffffffffffffff811115611d8457611d83611828565b5b611d9087828801611ceb565b91505092959194509250565b60008060408385031215611db357611db2611823565b5b6000611dc185828601611a79565b9250506020611dd285828601611a79565b9150509250929050565b7f4e487b7100000000000000000000000000000000000000000000000000000000600052602260045260246000fd5b60006002820490506001821680611e2357607f821691505b60208210811415611e3757611e36611ddc565b5b50919050565b7f4552433732313a20617070726f76656420717565727920666f72206e6f6e657860008201527f697374656e7420746f6b656e0000000000000000000000000000000000000000602082015250565b6000611e99602c836118f3565b9150611ea482611e3d565b604082019050919050565b60006020820190508181036000830152611ec881611e8c565b9050919050565b7f4552433732313a20617070726f76616c20746f2063757272656e74206f776e6560008201527f7200000000000000000000000000000000000000000000000000000000000000602082015250565b6000611f2b6021836118f3565b9150611f3682611ecf565b604082019050919050565b60006020820190508181036000830152611f5a81611f1e565b9050919050565b7f4552433732313a20617070726f76652063616c6c6572206973206e6f74206f7760008201527f6e6572206e6f7220617070726f76656420666f7220616c6c0000000000000000602082015250565b6000611fbd6038836118f3565b9150611fc882611f61565b604082019050919050565b60006020820190508181036000830152611fec81611fb0565b9050919050565b7f4e487b7100000000000000000000000000000000000000000000000000000000600052601160045260246000fd5b600061202d826119a3565b91507fffffffffffffffffffffffffffffffffffffffffffffffffffffffffffffffff8214156120605761205f611ff3565b5b600182019050919050565b7f4552433732313a207472616e736665722063616c6c6572206973206e6f74206f60008201527f776e6572206e6f7220617070726f766564000000000000000000000000000000602082015250565b60006120c76031836118f3565b91506120d28261206b565b604082019050919050565b600060208201905081810360008301526120f6816120ba565b9050919050565b7f4552433732313a206f776e657220717565727920666f72206e6f6e657869737460008201527f656e7420746f6b656e0000000000000000000000000000000000000000000000602082015250565b60006121596029836118f3565b9150612164826120fd565b604082019050919050565b600060208201905081810360008301526121888161214c565b9050919050565b7f4552433732313a2062616c616e636520717565727920666f7220746865207a6560008201527f726f206164647265737300000000000000000000000000000000000000000000602082015250565b60006121eb602a836118f3565b91506121f68261218f565b604082019050919050565b6000602082019050818103600083015261221a816121de565b9050919050565b7f4552433732314d657461646174613a2055524920717565727920666f72206e6f60008201527f6e6578697374656e7420746f6b656e0000000000000000000000000000000000602082015250565b600061227d602f836118f3565b915061228882612221565b604082019050919050565b600060208201905081810360008301526122ac81612270565b9050919050565b600081905092915050565b60006122c9826118e8565b6122d381856122b3565b93506122e3818560208601611904565b80840191505092915050565b60006122fb82856122be565b915061230782846122be565b91508190509392505050565b7f4552433732313a206d696e7420746f20746865207a65726f2061646472657373600082015250565b60006123496020836118f3565b915061235482612313565b602082019050919050565b600060208201905081810360008301526123788161233c565b9050919050565b7f4552433732313a20746f6b656e20616c7265616479206d696e74656400000000600082015250565b60006123b5601c836118f3565b91506123c08261237f565b602082019050919050565b600060208201905081810360008301526123e4816123a8565b9050919050565b60006123f6826119a3565b9150612401836119a3565b9250827fffffffffffffffffffffffffffffffffffffffffffffffffffffffffffffffff0382111561243657612435611ff3565b5b828201905092915050565b7f4552433732313a206f70657261746f7220717565727920666f72206e6f6e657860008201527f697374656e7420746f6b656e0000000000000000000000000000000000000000602082015250565b600061249d602c836118f3565b91506124a882612441565b604082019050919050565b600060208201905081810360008301526124cc81612490565b9050919050565b7f4552433732313a207472616e73666572206f6620746f6b656e2074686174206960008201527f73206e6f74206f776e0000000000000000000000000000000000000000000000602082015250565b600061252f6029836118f3565b915061253a826124d3565b604082019050919050565b6000602082019050818103600083015261255e81612522565b9050919050565b7f4552433732313a207472616e7366657220746f20746865207a65726f2061646460008201527f7265737300000000000000000000000000000000000000000000000000000000602082015250565b60006125c16024836118f3565b91506125cc82612565565b604082019050919050565b600060208201905081810360008301526125f0816125b4565b9050919050565b6000612602826119a3565b915061260d836119a3565b9250828210156126205761261f611ff3565b5b828203905092915050565b7f4552433732313a20617070726f766520746f2063616c6c657200000000000000600082015250565b60006126616019836118f3565b915061266c8261262b565b602082019050919050565b6000602082019050818103600083015261269081612654565b9050919050565b7f4552433732313a207472616e7366657220746f206e6f6e20455243373231526560008201527f63656976657220696d706c656d656e7465720000000000000000000000000000602082015250565b60006126f36032836118f3565b91506126fe82612697565b604082019050919050565b60006020820190508181036000830152612722816126e6565b9050919050565b7f4e487b7100000000000000000000000000000000000000000000000000000000600052601260045260246000fd5b6000612763826119a3565b915061276e836119a3565b92508261277e5761277d612729565b5b828204905092915050565b6000612794826119a3565b915061279f836119a3565b9250826127af576127ae612729565b5b828206905092915050565b7f4e487b7100000000000000000000000000000000000000000000000000000000600052603260045260246000fd5b600081519050919050565b600082825260208201905092915050565b6000612810826127e9565b61281a81856127f4565b935061282a818560208601611904565b61283381611937565b840191505092915050565b60006080820190506128536000830187611a38565b6128606020830186611a38565b61286d6040830185611afb565b818103606083015261287f8184612805565b905095945050505050565b60008151905061289981611859565b92915050565b6000602082840312156128b5576128b4611823565b5b60006128c38482850161288a565b9150509291505056fea26469706673582212207682b63e30f8f5230f30d93eb176dc57b850014a9f2cbf49600b80451184a65764736f6c634300080b0033",
  "immutableReferences": {},
  "source": "// SPDX-License-Identifier: GPL-3.0\r\npragma solidity >=0.4.16 <0.9.0;\r\n\r\nimport \"@openzeppelin/contracts/token/ERC721/ERC721.sol\";\r\n\r\ncontract Condos is ERC721 {\r\n\r\n    uint256 public _tokenId;\r\n\r\n    mapping(address => uint256) public MDTrack;\r\n\r\n    constructor() ERC721(\"CondosItem\", \"CND\") {\r\n        _tokenId = 0;\r\n    }\r\n\r\n    function createNFT(address receiver) external returns (uint256) {\r\n        _tokenId++;\r\n        _mint(receiver, _tokenId);\r\n        return _tokenId;\r\n    }\r\n\r\n    function transferNFT(address sender, address receiver, uint256 tokenId) external payable returns (uint256) {\r\n        transferFrom(sender, receiver, tokenId);\r\n        delete MDTrack[sender];\r\n        MDTrack[receiver] = _tokenId;\r\n        return _tokenId;\r\n    }\r\n\r\n}",
  "sourcePath": "C:\\Users\\Tyquan\\Desktop\\Eth_tuts\\bdfp\\ch3\\moolahcoin\\contracts\\Condos.sol",
  "compiler": {
    "name": "solc",
    "version": "0.8.11+commit.d7f03943.Emscripten.clang"
  },
  "schemaVersion": "3.4.4",
  "updatedAt": "2022-01-02T20:07:19.154Z",
  "devdoc": {
    "kind": "dev",
    "methods": {
      "approve(address,uint256)": {
        "details": "See {IERC721-approve}."
      },
      "balanceOf(address)": {
        "details": "See {IERC721-balanceOf}."
      },
      "getApproved(uint256)": {
        "details": "See {IERC721-getApproved}."
      },
      "isApprovedForAll(address,address)": {
        "details": "See {IERC721-isApprovedForAll}."
      },
      "name()": {
        "details": "See {IERC721Metadata-name}."
      },
      "ownerOf(uint256)": {
        "details": "See {IERC721-ownerOf}."
      },
      "safeTransferFrom(address,address,uint256)": {
        "details": "See {IERC721-safeTransferFrom}."
      },
      "safeTransferFrom(address,address,uint256,bytes)": {
        "details": "See {IERC721-safeTransferFrom}."
      },
      "setApprovalForAll(address,bool)": {
        "details": "See {IERC721-setApprovalForAll}."
      },
      "supportsInterface(bytes4)": {
        "details": "See {IERC165-supportsInterface}."
      },
      "symbol()": {
        "details": "See {IERC721Metadata-symbol}."
      },
      "tokenURI(uint256)": {
        "details": "See {IERC721Metadata-tokenURI}."
      },
      "transferFrom(address,address,uint256)": {
        "details": "See {IERC721-transferFrom}."
      }
    },
    "version": 1
  },
  "userdoc": {
    "kind": "user",
    "methods": {},
    "version": 1
  }
}